{
  "_format": "hh-sol-artifact-1",
  "contractName": "Faucet",
  "sourceName": "contracts/Faucet.sol",
  "abi": [
    {
      "inputs": [],
      "stateMutability": "payable",
      "type": "constructor"
    },
    {
      "inputs": [],
      "name": "amountAllowed",
      "outputs": [
        {
          "internalType": "uint256",
          "name": "",
          "type": "uint256"
        }
      ],
      "stateMutability": "view",
      "type": "function"
    },
    {
      "inputs": [],
      "name": "donateTofaucet",
      "outputs": [],
      "stateMutability": "payable",
      "type": "function"
    },
    {
      "inputs": [
        {
          "internalType": "address",
          "name": "",
          "type": "address"
        }
      ],
      "name": "lockTime",
      "outputs": [
        {
          "internalType": "uint256",
          "name": "",
          "type": "uint256"
        }
      ],
      "stateMutability": "view",
      "type": "function"
    },
    {
      "inputs": [],
      "name": "owner",
      "outputs": [
        {
          "internalType": "address",
          "name": "",
          "type": "address"
        }
      ],
      "stateMutability": "view",
      "type": "function"
    },
    {
      "inputs": [
        {
          "internalType": "address payable",
          "name": "_requestor",
          "type": "address"
        }
      ],
      "name": "requestTokens",
      "outputs": [],
      "stateMutability": "payable",
      "type": "function"
    },
    {
      "inputs": [
        {
          "internalType": "uint256",
          "name": "newAmountAllowed",
          "type": "uint256"
        }
      ],
      "name": "setAmountallowed",
      "outputs": [],
      "stateMutability": "nonpayable",
      "type": "function"
    },
    {
      "inputs": [
        {
          "internalType": "address",
          "name": "newOwner",
          "type": "address"
        }
      ],
      "name": "setOwner",
      "outputs": [],
      "stateMutability": "nonpayable",
      "type": "function"
    }
  ],
  "bytecode": "0x608060405266470de4df820000600155336000806101000a81548173ffffffffffffffffffffffffffffffffffffffff021916908373ffffffffffffffffffffffffffffffffffffffff1602179055506108a28061005e6000396000f3fe6080604052600436106100705760003560e01c80638da5cb5b1161004e5780638da5cb5b146100c45780639ad2cd14146100ef578063a4beda631461011a578063f3aa52a11461015757610070565b806313af403514610075578063580f39041461009e578063605e73cd146100ba575b600080fd5b34801561008157600080fd5b5061009c600480360381019061009791906104f3565b610180565b005b6100b860048036038101906100b3919061055e565b610251565b005b6100c26103b4565b005b3480156100d057600080fd5b506100d96103b6565b6040516100e6919061059a565b60405180910390f35b3480156100fb57600080fd5b506101046103da565b60405161011191906105ce565b60405180910390f35b34801561012657600080fd5b50610141600480360381019061013c91906104f3565b6103e0565b60405161014e91906105ce565b60405180910390f35b34801561016357600080fd5b5061017e60048036038101906101799190610615565b6103f8565b005b60008054906101000a900473ffffffffffffffffffffffffffffffffffffffff1673ffffffffffffffffffffffffffffffffffffffff163373ffffffffffffffffffffffffffffffffffffffff161461020e576040517f08c379a0000000000000000000000000000000000000000000000000000000008152600401610205906106c5565b60405180910390fd5b806000806101000a81548173ffffffffffffffffffffffffffffffffffffffff021916908373ffffffffffffffffffffffffffffffffffffffff16021790555050565b600260003373ffffffffffffffffffffffffffffffffffffffff1673ffffffffffffffffffffffffffffffffffffffff1681526020019081526020016000205442116102d2576040517f08c379a00000000000000000000000000000000000000000000000000000000081526004016102c990610757565b60405180910390fd5b6001544711610316576040517f08c379a000000000000000000000000000000000000000000000000000000000815260040161030d906107e9565b60405180910390fd5b8073ffffffffffffffffffffffffffffffffffffffff166108fc6001549081150290604051600060405180830381858888f1935050505015801561035e573d6000803e3d6000fd5b50620151804261036e9190610838565b600260003373ffffffffffffffffffffffffffffffffffffffff1673ffffffffffffffffffffffffffffffffffffffff1681526020019081526020016000208190555050565b565b60008054906101000a900473ffffffffffffffffffffffffffffffffffffffff1681565b60015481565b60026020528060005260406000206000915090505481565b60008054906101000a900473ffffffffffffffffffffffffffffffffffffffff1673ffffffffffffffffffffffffffffffffffffffff163373ffffffffffffffffffffffffffffffffffffffff1614610486576040517f08c379a000000000000000000000000000000000000000000000000000000000815260040161047d906106c5565b60405180910390fd5b8060018190555050565b600080fd5b600073ffffffffffffffffffffffffffffffffffffffff82169050919050565b60006104c082610495565b9050919050565b6104d0816104b5565b81146104db57600080fd5b50565b6000813590506104ed816104c7565b92915050565b60006020828403121561050957610508610490565b5b6000610517848285016104de565b91505092915050565b600061052b82610495565b9050919050565b61053b81610520565b811461054657600080fd5b50565b60008135905061055881610532565b92915050565b60006020828403121561057457610573610490565b5b600061058284828501610549565b91505092915050565b610594816104b5565b82525050565b60006020820190506105af600083018461058b565b92915050565b6000819050919050565b6105c8816105b5565b82525050565b60006020820190506105e360008301846105bf565b92915050565b6105f2816105b5565b81146105fd57600080fd5b50565b60008135905061060f816105e9565b92915050565b60006020828403121561062b5761062a610490565b5b600061063984828501610600565b91505092915050565b600082825260208201905092915050565b7f4f6e6c79206f776e65722063616e2063616c6c20746869732066756e6374696f60008201527f6e2e000000000000000000000000000000000000000000000000000000000000602082015250565b60006106af602283610642565b91506106ba82610653565b604082019050919050565b600060208201905081810360008301526106de816106a2565b9050919050565b7f6c6f636b2074696d6520686173206e6f7420657870697265642e20506c65617360008201527f652074727920616761696e206c61746572000000000000000000000000000000602082015250565b6000610741603183610642565b915061074c826106e5565b604082019050919050565b6000602082019050818103600083015261077081610734565b9050919050565b7f4e6f7420656e6f7567682066756e647320696e20746865206661756365742e2060008201527f506c6561736520646f6e61746500000000000000000000000000000000000000602082015250565b60006107d3602d83610642565b91506107de82610777565b604082019050919050565b60006020820190508181036000830152610802816107c6565b9050919050565b7f4e487b7100000000000000000000000000000000000000000000000000000000600052601160045260246000fd5b6000610843826105b5565b915061084e836105b5565b925082820190508082111561086657610865610809565b5b9291505056fea2646970667358221220562a747eed84e1e6aae499d95b0c6489912d84a8bc9cf084d290923d3ebae2f264736f6c63430008130033",
  "linkReferences": {},
  "deployedLinkReferences": {}
}